{
  "contractName": "profile",
  "abi": [
    {
      "inputs": [],
      "payable": false,
      "stateMutability": "nonpayable",
      "type": "constructor"
    },
    {
      "constant": true,
      "inputs": [],
      "name": "thoughtCount",
      "outputs": [
        {
          "internalType": "uint256",
          "name": "",
          "type": "uint256"
        }
      ],
      "payable": false,
      "stateMutability": "view",
      "type": "function"
    },
    {
      "constant": true,
      "inputs": [
        {
          "internalType": "uint256",
          "name": "",
          "type": "uint256"
        }
      ],
      "name": "thoughts",
      "outputs": [
        {
          "internalType": "uint256",
          "name": "id",
          "type": "uint256"
        },
        {
          "internalType": "string",
          "name": "thought",
          "type": "string"
        },
        {
          "internalType": "address",
          "name": "sender",
          "type": "address"
        },
        {
          "internalType": "string",
          "name": "handle",
          "type": "string"
        }
      ],
      "payable": false,
      "stateMutability": "view",
      "type": "function"
    },
    {
      "constant": true,
      "inputs": [
        {
          "internalType": "uint256",
          "name": "",
          "type": "uint256"
        }
      ],
      "name": "users",
      "outputs": [
        {
          "internalType": "uint256",
          "name": "id",
          "type": "uint256"
        },
        {
          "internalType": "string",
          "name": "handle",
          "type": "string"
        },
        {
          "internalType": "address",
          "name": "user",
          "type": "address"
        }
      ],
      "payable": false,
      "stateMutability": "view",
      "type": "function"
    },
    {
      "constant": false,
      "inputs": [],
      "name": "getUser",
      "outputs": [],
      "payable": false,
      "stateMutability": "nonpayable",
      "type": "function"
    },
    {
      "constant": false,
      "inputs": [
        {
          "internalType": "string",
          "name": "_content",
          "type": "string"
        }
      ],
      "name": "createThought",
      "outputs": [],
      "payable": false,
      "stateMutability": "nonpayable",
      "type": "function"
    },
    {
      "constant": false,
      "inputs": [
        {
          "internalType": "string",
          "name": "_handle",
          "type": "string"
        }
      ],
      "name": "firstThought",
      "outputs": [],
      "payable": false,
      "stateMutability": "nonpayable",
      "type": "function"
    },
    {
      "constant": false,
      "inputs": [],
      "name": "genesisThought",
      "outputs": [],
      "payable": false,
      "stateMutability": "nonpayable",
      "type": "function"
    },
    {
      "constant": false,
      "inputs": [],
      "name": "readThoughts",
      "outputs": [],
      "payable": false,
      "stateMutability": "nonpayable",
      "type": "function"
    },
    {
      "constant": false,
      "inputs": [
        {
          "internalType": "string",
          "name": "_handle",
          "type": "string"
        }
      ],
      "name": "newUser",
      "outputs": [],
      "payable": false,
      "stateMutability": "nonpayable",
      "type": "function"
    },
    {
      "constant": false,
      "inputs": [
        {
          "internalType": "string",
          "name": "_handle",
          "type": "string"
        }
      ],
      "name": "updateUser",
      "outputs": [
        {
          "internalType": "uint256",
          "name": "",
          "type": "uint256"
        }
      ],
      "payable": false,
      "stateMutability": "nonpayable",
      "type": "function"
    }
  ],
  "bytecode": "0x60806040526000805560006001553480156200001a57600080fd5b506200002b6200003160201b60201c565b62000242565b60606040518060400160405280600d81526020017f48656c6c6f2c20576f726c6421000000000000000000000000000000000000008152509050604051806080016040528060005481526020018281526020013373ffffffffffffffffffffffffffffffffffffffff1681526020016040518060400160405280600781526020017f67656e657369730000000000000000000000000000000000000000000000000081525081525060026000805481526020019081526020016000206000820151816000015560208201518160010190805190602001906200011592919062000193565b5060408201518160020160006101000a81548173ffffffffffffffffffffffffffffffffffffffff021916908373ffffffffffffffffffffffffffffffffffffffff16021790555060608201518160030190805190602001906200017b92919062000193565b50905050600080815480929190600101919050555050565b828054600181600116156101000203166002900490600052602060002090601f016020900481019282601f10620001d657805160ff191683800117855562000207565b8280016001018555821562000207579182015b8281111562000206578251825591602001919060010190620001e9565b5b5090506200021691906200021a565b5090565b6200023f91905b808211156200023b57600081600090555060010162000221565b5090565b90565b6114ec80620002526000396000f3fe608060405234801561001057600080fd5b506004361061009e5760003560e01c8063365b98b211610066578063365b98b21461031057806347aa1c1b146103f157806363af10bc146104ac578063832880e7146104b6578063e79e5195146104c05761009e565b806306504bca146100a35780630b4f12f6146100c157806314b9c44f146101905780631b2ee3bb1461019a5780631eed119214610255575b600080fd5b6100ab61060d565b6040518082815260200191505060405180910390f35b61017a600480360360208110156100d757600080fd5b81019080803590602001906401000000008111156100f457600080fd5b82018360208201111561010657600080fd5b8035906020019184600183028401116401000000008311171561012857600080fd5b91908080601f016020809104026020016040519081016040528093929190818152602001838380828437600081840152601f19601f820116905080830192505050505050509192919290505050610613565b6040518082815260200191505060405180910390f35b6101986109ff565b005b610253600480360360208110156101b057600080fd5b81019080803590602001906401000000008111156101cd57600080fd5b8201836020820111156101df57600080fd5b8035906020019184600183028401116401000000008311171561020157600080fd5b91908080601f016020809104026020016040519081016040528093929190818152602001838380828437600081840152601f19601f820116905080830192505050505050509192919290505050610a01565b005b61030e6004803603602081101561026b57600080fd5b810190808035906020019064010000000081111561028857600080fd5b82018360208201111561029a57600080fd5b803590602001918460018302840111640100000000831117156102bc57600080fd5b91908080601f016020809104026020016040519081016040528093929190818152602001838380828437600081840152601f19601f820116905080830192505050505050509192919290505050610b7a565b005b61033c6004803603602081101561032657600080fd5b8101908080359060200190929190505050610d2e565b60405180848152602001806020018373ffffffffffffffffffffffffffffffffffffffff1673ffffffffffffffffffffffffffffffffffffffff168152602001828103825284818151815260200191508051906020019080838360005b838110156103b4578082015181840152602081019050610399565b50505050905090810190601f1680156103e15780820380516001836020036101000a031916815260200191505b5094505050505060405180910390f35b6104aa6004803603602081101561040757600080fd5b810190808035906020019064010000000081111561042457600080fd5b82018360208201111561043657600080fd5b8035906020019184600183028401116401000000008311171561045857600080fd5b91908080601f016020809104026020016040519081016040528093929190818152602001838380828437600081840152601f19601f820116905080830192505050505050509192919290505050610e10565b005b6104b46110b2565b005b6104be611210565b005b6104ec600480360360208110156104d657600080fd5b8101908080359060200190929190505050611212565b60405180858152602001806020018473ffffffffffffffffffffffffffffffffffffffff1673ffffffffffffffffffffffffffffffffffffffff16815260200180602001838103835286818151815260200191508051906020019080838360005b8381101561056857808201518184015260208101905061054d565b50505050905090810190601f1680156105955780820380516001836020036101000a031916815260200191505b50838103825284818151815260200191508051906020019080838360005b838110156105ce5780820151818401526020810190506105b3565b50505050905090810190601f1680156105fb5780820380516001836020036101000a031916815260200191505b50965050505050505060405180910390f35b60005481565b600080600660003373ffffffffffffffffffffffffffffffffffffffff1673ffffffffffffffffffffffffffffffffffffffff1681526020019081526020016000205490506000600560003373ffffffffffffffffffffffffffffffffffffffff1673ffffffffffffffffffffffffffffffffffffffff1681526020019081526020016000205414156106b3576106a983610a01565b60019150506109fa565b6060600460003373ffffffffffffffffffffffffffffffffffffffff1673ffffffffffffffffffffffffffffffffffffffff1681526020019081526020016000208054600181600116156101000203166002900480601f0160208091040260200160405190810160405280929190818152602001828054600181600116156101000203166002900480156107885780601f1061075d57610100808354040283529160200191610788565b820191906000526020600020905b81548152906001019060200180831161076b57829003601f168201915b5050505050905060006007856040518082805190602001908083835b602083106107c757805182526020820191506020810190506020830392506107a4565b6001836020036101000a03801982511681845116808217855250505050505090500191505090815260200160405180910390205414156109f35760405180606001604052808381526020018581526020013373ffffffffffffffffffffffffffffffffffffffff168152506003600084815260200190815260200160002060008201518160000155602082015181600101908051906020019061086b929190611392565b5060408201518160020160006101000a81548173ffffffffffffffffffffffffffffffffffffffff021916908373ffffffffffffffffffffffffffffffffffffffff16021790555090505083600460003373ffffffffffffffffffffffffffffffffffffffff1673ffffffffffffffffffffffffffffffffffffffff1681526020019081526020016000209080519060200190610909929190611412565b5060006007826040518082805190602001908083835b60208310610942578051825260208201915060208101905060208303925061091f565b6001836020036101000a03801982511681845116808217855250505050505090500191505090815260200160405180910390208190555060016007856040518082805190602001908083835b602083106109b1578051825260208201915060208101905060208303925061098e565b6001836020036101000a0380198251168184511680821785525050505050509050019150509081526020016040518091039020819055506002925050506109fa565b6003925050505b919050565b565b60606040518060400160405280600b81526020017f4920616d20616c697665210000000000000000000000000000000000000000008152509050604051806080016040528060005481526020018281526020013373ffffffffffffffffffffffffffffffffffffffff168152602001838152506002600080548152602001908152602001600020600082015181600001556020820151816001019080519060200190610aae929190611392565b5060408201518160020160006101000a81548173ffffffffffffffffffffffffffffffffffffffff021916908373ffffffffffffffffffffffffffffffffffffffff1602179055506060820151816003019080519060200190610b12929190611392565b50905050600560003373ffffffffffffffffffffffffffffffffffffffff1673ffffffffffffffffffffffffffffffffffffffff1681526020019081526020016000206000815480929190600101919050555060008081548092919060010191905055505050565b6000600560003373ffffffffffffffffffffffffffffffffffffffff1673ffffffffffffffffffffffffffffffffffffffff1681526020019081526020016000205414610bc657600080fd5b604051806060016040528060015481526020018281526020013373ffffffffffffffffffffffffffffffffffffffff16815250600360006001548152602001908152602001600020600082015181600001556020820151816001019080519060200190610c34929190611392565b5060408201518160020160006101000a81548173ffffffffffffffffffffffffffffffffffffffff021916908373ffffffffffffffffffffffffffffffffffffffff16021790555090505080600460003373ffffffffffffffffffffffffffffffffffffffff1673ffffffffffffffffffffffffffffffffffffffff1681526020019081526020016000209080519060200190610cd2929190611412565b50600154600660003373ffffffffffffffffffffffffffffffffffffffff1673ffffffffffffffffffffffffffffffffffffffff1681526020019081526020016000208190555060016000815480929190600101919050555050565b6003602052806000526040600020600091509050806000015490806001018054600181600116156101000203166002900480601f016020809104026020016040519081016040528092919081815260200182805460018160011615610100020316600290048015610de05780601f10610db557610100808354040283529160200191610de0565b820191906000526020600020905b815481529060010190602001808311610dc357829003601f168201915b5050505050908060020160009054906101000a900473ffffffffffffffffffffffffffffffffffffffff16905083565b6000600560003373ffffffffffffffffffffffffffffffffffffffff1673ffffffffffffffffffffffffffffffffffffffff168152602001908152602001600020541415610e9757610e966040518060400160405280600981526020017f416e6f6e796d6f75730000000000000000000000000000000000000000000000815250610b7a565b5b6060600460003373ffffffffffffffffffffffffffffffffffffffff1673ffffffffffffffffffffffffffffffffffffffff1681526020019081526020016000208054600181600116156101000203166002900480601f016020809104026020016040519081016040528092919081815260200182805460018160011615610100020316600290048015610f6c5780601f10610f4157610100808354040283529160200191610f6c565b820191906000526020600020905b815481529060010190602001808311610f4f57829003601f168201915b50505050509050604051806080016040528060005481526020018381526020013373ffffffffffffffffffffffffffffffffffffffff168152602001828152506002600080548152602001908152602001600020600082015181600001556020820151816001019080519060200190610fe6929190611392565b5060408201518160020160006101000a81548173ffffffffffffffffffffffffffffffffffffffff021916908373ffffffffffffffffffffffffffffffffffffffff160217905550606082015181600301908051906020019061104a929190611392565b50905050600560003373ffffffffffffffffffffffffffffffffffffffff1673ffffffffffffffffffffffffffffffffffffffff1681526020019081526020016000206000815480929190600101919050555060008081548092919060010191905055505050565b60606040518060400160405280600d81526020017f48656c6c6f2c20576f726c6421000000000000000000000000000000000000008152509050604051806080016040528060005481526020018281526020013373ffffffffffffffffffffffffffffffffffffffff1681526020016040518060400160405280600781526020017f67656e65736973000000000000000000000000000000000000000000000000008152508152506002600080548152602001908152602001600020600082015181600001556020820151816001019080519060200190611194929190611392565b5060408201518160020160006101000a81548173ffffffffffffffffffffffffffffffffffffffff021916908373ffffffffffffffffffffffffffffffffffffffff16021790555060608201518160030190805190602001906111f8929190611392565b50905050600080815480929190600101919050555050565b565b6002602052806000526040600020600091509050806000015490806001018054600181600116156101000203166002900480601f0160208091040260200160405190810160405280929190818152602001828054600181600116156101000203166002900480156112c45780601f10611299576101008083540402835291602001916112c4565b820191906000526020600020905b8154815290600101906020018083116112a757829003601f168201915b5050505050908060020160009054906101000a900473ffffffffffffffffffffffffffffffffffffffff1690806003018054600181600116156101000203166002900480601f0160208091040260200160405190810160405280929190818152602001828054600181600116156101000203166002900480156113885780601f1061135d57610100808354040283529160200191611388565b820191906000526020600020905b81548152906001019060200180831161136b57829003601f168201915b5050505050905084565b828054600181600116156101000203166002900490600052602060002090601f016020900481019282601f106113d357805160ff1916838001178555611401565b82800160010185558215611401579182015b828111156114005782518255916020019190600101906113e5565b5b50905061140e9190611492565b5090565b828054600181600116156101000203166002900490600052602060002090601f016020900481019282601f1061145357805160ff1916838001178555611481565b82800160010185558215611481579182015b82811115611480578251825591602001919060010190611465565b5b50905061148e9190611492565b5090565b6114b491905b808211156114b0576000816000905550600101611498565b5090565b9056fea265627a7a7231582008c5dffcabaeddd84682e4808455031c72c97877b8271a6ac8123698811d1eae64736f6c63430005100032",
  "source": "pragma solidity ^0.5.16;\n\ncontract profile {\n\n\n    uint public thoughtCount = 0;\n    uint userCount = 0;\n\n    struct Thought {\n      uint id;\n      string thought;\n      address sender;\n      string handle;\n    }\n\n    struct User {\n      uint id;\n      string handle;\n      address user;\n    }\n\n\n    //Thought[] public thoughts;\n\n    mapping(uint => Thought) public thoughts;\n    mapping(uint => User) public users;\n    mapping (address => string) handles;\n    mapping (address => uint) senderThoughts;\n    mapping (address => uint) senderID;\n    mapping (string => uint) handleList;\n\n\n    constructor () public {\n      genesisThought();\n    }\n\n    function getUser () public {\n\n    }\n\n    function createThought(string memory _content) public {\n\n      if (senderThoughts[msg.sender] == 0) {\n        newUser(\"Anonymous\");\n      }\n\n      string memory user = handles[msg.sender];\n\n      thoughts[thoughtCount] = Thought(thoughtCount, _content, msg.sender, user);\n      senderThoughts[msg.sender]++;\n      thoughtCount++;\n\n    }\n\n    function firstThought(string memory _handle) public {\n      string memory ft = \"I am alive!\";\n      thoughts[thoughtCount] = Thought(thoughtCount, ft, msg.sender, _handle);\n      senderThoughts[msg.sender]++;\n      thoughtCount ++;\n    }\n\n\n    function genesisThought() public {\n      string memory ft = \"Hello, World!\";\n      thoughts[thoughtCount] = Thought(thoughtCount, ft, msg.sender, \"genesis\");\n      thoughtCount ++;\n    }\n\n    function readThoughts() public {\n\n    }\n\n    function newUser(string memory _handle) public {\n      require(senderThoughts[msg.sender] == 0);\n      users[userCount] = User(userCount, _handle, msg.sender);\n      handles[msg.sender] = _handle;\n      senderID[msg.sender] = userCount;\n      userCount++;\n    }\n\n    function updateUser(string memory _handle) public returns (uint) {\n\n      uint sndr = senderID[msg.sender];\n\n      if (senderThoughts[msg.sender] == 0) {\n        firstThought(_handle);\n        return 1;\n      }\n\n      else {\n\n        string memory handleStorage = handles[msg.sender];\n\n        if (handleList[_handle] == 0) {\n          users[sndr] = User(sndr, _handle, msg.sender);\n          handles[msg.sender] = _handle;\n          handleList[handleStorage] = 0;\n          handleList[_handle] = 1;\n          return 2;\n        }\n        else {\n          return 3;\n        }\n      }\n    }\n\n\n\n  }\n",
  "sourcePath": "/Users/reuben/Desktop/school/osu/capstone/synapse-project/contracts/profile.sol",
  "compiler": {
    "name": "solc",
    "version": "0.5.16+commit.9c3226ce.Emscripten.clang"
  },
  "schemaVersion": "3.0.22",
  "updatedAt": "2020-02-17T02:21:27.844Z",
  "networkType": "ethereum",
  "devdoc": {
    "methods": {}
  },
  "userdoc": {
    "methods": {}
  }
}