{
  "contractName": "profile",
  "abi": [
    {
      "inputs": [],
      "payable": false,
      "stateMutability": "nonpayable",
      "type": "constructor"
    },
    {
      "anonymous": false,
      "inputs": [
        {
          "indexed": false,
          "internalType": "string",
          "name": "_handle",
          "type": "string"
        },
        {
          "indexed": false,
          "internalType": "address",
          "name": "sndr",
          "type": "address"
        },
        {
          "indexed": false,
          "internalType": "uint256",
          "name": "avail",
          "type": "uint256"
        }
      ],
      "name": "checkHandle",
      "type": "event"
    },
    {
      "constant": true,
      "inputs": [],
      "name": "numHandles",
      "outputs": [
        {
          "internalType": "uint256",
          "name": "",
          "type": "uint256"
        }
      ],
      "payable": false,
      "stateMutability": "view",
      "type": "function"
    },
    {
      "constant": true,
      "inputs": [],
      "name": "thoughtCount",
      "outputs": [
        {
          "internalType": "uint256",
          "name": "",
          "type": "uint256"
        }
      ],
      "payable": false,
      "stateMutability": "view",
      "type": "function"
    },
    {
      "constant": true,
      "inputs": [
        {
          "internalType": "uint256",
          "name": "",
          "type": "uint256"
        }
      ],
      "name": "thoughts",
      "outputs": [
        {
          "internalType": "uint256",
          "name": "id",
          "type": "uint256"
        },
        {
          "internalType": "string",
          "name": "thought",
          "type": "string"
        },
        {
          "internalType": "address",
          "name": "sender",
          "type": "address"
        },
        {
          "internalType": "string",
          "name": "handle",
          "type": "string"
        }
      ],
      "payable": false,
      "stateMutability": "view",
      "type": "function"
    },
    {
      "constant": true,
      "inputs": [
        {
          "internalType": "uint256",
          "name": "",
          "type": "uint256"
        }
      ],
      "name": "users",
      "outputs": [
        {
          "internalType": "uint256",
          "name": "id",
          "type": "uint256"
        },
        {
          "internalType": "string",
          "name": "handle",
          "type": "string"
        },
        {
          "internalType": "address",
          "name": "user",
          "type": "address"
        }
      ],
      "payable": false,
      "stateMutability": "view",
      "type": "function"
    },
    {
      "constant": false,
      "inputs": [],
      "name": "getUser",
      "outputs": [],
      "payable": false,
      "stateMutability": "nonpayable",
      "type": "function"
    },
    {
      "constant": false,
      "inputs": [
        {
          "internalType": "string",
          "name": "_content",
          "type": "string"
        }
      ],
      "name": "createThought",
      "outputs": [],
      "payable": false,
      "stateMutability": "nonpayable",
      "type": "function"
    },
    {
      "constant": false,
      "inputs": [
        {
          "internalType": "string",
          "name": "_handle",
          "type": "string"
        }
      ],
      "name": "firstThought",
      "outputs": [],
      "payable": false,
      "stateMutability": "nonpayable",
      "type": "function"
    },
    {
      "constant": false,
      "inputs": [],
      "name": "genesisThought",
      "outputs": [],
      "payable": false,
      "stateMutability": "nonpayable",
      "type": "function"
    },
    {
      "constant": false,
      "inputs": [],
      "name": "readThoughts",
      "outputs": [],
      "payable": false,
      "stateMutability": "nonpayable",
      "type": "function"
    },
    {
      "constant": false,
      "inputs": [
        {
          "internalType": "string",
          "name": "_handle",
          "type": "string"
        }
      ],
      "name": "newUser",
      "outputs": [],
      "payable": false,
      "stateMutability": "nonpayable",
      "type": "function"
    },
    {
      "constant": false,
      "inputs": [
        {
          "internalType": "string",
          "name": "_handle",
          "type": "string"
        }
      ],
      "name": "updateUser",
      "outputs": [
        {
          "internalType": "uint256",
          "name": "",
          "type": "uint256"
        }
      ],
      "payable": false,
      "stateMutability": "nonpayable",
      "type": "function"
    }
  ],
  "bytecode": "0x608060405260008055600060015560006002553480156200001f57600080fd5b50620000306200003660201b60201c565b62000247565b60606040518060400160405280600d81526020017f48656c6c6f2c20576f726c6421000000000000000000000000000000000000008152509050604051806080016040528060005481526020018281526020013373ffffffffffffffffffffffffffffffffffffffff1681526020016040518060400160405280600781526020017f67656e657369730000000000000000000000000000000000000000000000000081525081525060036000805481526020019081526020016000206000820151816000015560208201518160010190805190602001906200011a92919062000198565b5060408201518160020160006101000a81548173ffffffffffffffffffffffffffffffffffffffff021916908373ffffffffffffffffffffffffffffffffffffffff16021790555060608201518160030190805190602001906200018092919062000198565b50905050600080815480929190600101919050555050565b828054600181600116156101000203166002900490600052602060002090601f016020900481019282601f10620001db57805160ff19168380011785556200020c565b828001600101855582156200020c579182015b828111156200020b578251825591602001919060010190620001ee565b5b5090506200021b91906200021f565b5090565b6200024491905b808211156200024057600081600090555060010162000226565b5090565b90565b61189c80620002576000396000f3fe608060405234801561001057600080fd5b50600436106100a95760003560e01c8063365b98b211610071578063365b98b21461031b57806347aa1c1b146103fc57806363af10bc146104b7578063832880e7146104c1578063cce284a0146104cb578063e79e5195146104e9576100a9565b806306504bca146100ae5780630b4f12f6146100cc57806314b9c44f1461019b5780631b2ee3bb146101a55780631eed119214610260575b600080fd5b6100b6610636565b6040518082815260200191505060405180910390f35b610185600480360360208110156100e257600080fd5b81019080803590602001906401000000008111156100ff57600080fd5b82018360208201111561011157600080fd5b8035906020019184600183028401116401000000008311171561013357600080fd5b91908080601f016020809104026020016040519081016040528093929190818152602001838380828437600081840152601f19601f82011690508083019250505050505050919291929050505061063c565b6040518082815260200191505060405180910390f35b6101a3610d28565b005b61025e600480360360208110156101bb57600080fd5b81019080803590602001906401000000008111156101d857600080fd5b8201836020820111156101ea57600080fd5b8035906020019184600183028401116401000000008311171561020c57600080fd5b91908080601f016020809104026020016040519081016040528093929190818152602001838380828437600081840152601f19601f820116905080830192505050505050509192919290505050610d2a565b005b6103196004803603602081101561027657600080fd5b810190808035906020019064010000000081111561029357600080fd5b8201836020820111156102a557600080fd5b803590602001918460018302840111640100000000831117156102c757600080fd5b91908080601f016020809104026020016040519081016040528093929190818152602001838380828437600081840152601f19601f820116905080830192505050505050509192919290505050610f24565b005b6103476004803603602081101561033157600080fd5b81019080803590602001909291905050506110d8565b60405180848152602001806020018373ffffffffffffffffffffffffffffffffffffffff1673ffffffffffffffffffffffffffffffffffffffff168152602001828103825284818151815260200191508051906020019080838360005b838110156103bf5780820151818401526020810190506103a4565b50505050905090810190601f1680156103ec5780820380516001836020036101000a031916815260200191505b5094505050505060405180910390f35b6104b56004803603602081101561041257600080fd5b810190808035906020019064010000000081111561042f57600080fd5b82018360208201111561044157600080fd5b8035906020019184600183028401116401000000008311171561046357600080fd5b91908080601f016020809104026020016040519081016040528093929190818152602001838380828437600081840152601f19601f8201169050808301925050505050505091929192905050506111ba565b005b6104bf61145c565b005b6104c96115ba565b005b6104d36115bc565b6040518082815260200191505060405180910390f35b610515600480360360208110156104ff57600080fd5b81019080803590602001909291905050506115c2565b60405180858152602001806020018473ffffffffffffffffffffffffffffffffffffffff1673ffffffffffffffffffffffffffffffffffffffff16815260200180602001838103835286818151815260200191508051906020019080838360005b83811015610591578082015181840152602081019050610576565b50505050905090810190601f1680156105be5780820380516001836020036101000a031916815260200191505b50838103825284818151815260200191508051906020019080838360005b838110156105f75780820151818401526020810190506105dc565b50505050905090810190601f1680156106245780820380516001836020036101000a031916815260200191505b50965050505050505060405180910390f35b60005481565b600080600760003373ffffffffffffffffffffffffffffffffffffffff1673ffffffffffffffffffffffffffffffffffffffff1681526020019081526020016000205490506000600660003373ffffffffffffffffffffffffffffffffffffffff1673ffffffffffffffffffffffffffffffffffffffff1681526020019081526020016000205414156107b0576106d283610d2a565b7fd9091ddaa6d8232d99a7c3a9b95e8bd651ce4c084e7eaefb587d2c4b8b82cbc38333600160405180806020018473ffffffffffffffffffffffffffffffffffffffff1673ffffffffffffffffffffffffffffffffffffffff168152602001838152602001828103825285818151815260200191508051906020019080838360005b8381101561076f578082015181840152602081019050610754565b50505050905090810190601f16801561079c5780820380516001836020036101000a031916815260200191505b5094505050505060405180910390a1610d22565b6060600560003373ffffffffffffffffffffffffffffffffffffffff1673ffffffffffffffffffffffffffffffffffffffff1681526020019081526020016000208054600181600116156101000203166002900480601f0160208091040260200160405190810160405280929190818152602001828054600181600116156101000203166002900480156108855780601f1061085a57610100808354040283529160200191610885565b820191906000526020600020905b81548152906001019060200180831161086857829003601f168201915b5050505050905060016008856040518082805190602001908083835b602083106108c457805182526020820191506020810190506020830392506108a1565b6001836020036101000a03801982511681845116808217855250505050505090500191505090815260200160405180910390205414610c465760006008856040518082805190602001908083835b602083106109355780518252602082019150602081019050602083039250610912565b6001836020036101000a03801982511681845116808217855250505050505090500191505090815260200160405180910390205414610981576002600081548092919060010191905055505b60405180606001604052808381526020018581526020013373ffffffffffffffffffffffffffffffffffffffff16815250600460008481526020019081526020016000206000820151816000015560208201518160010190805190602001906109eb929190611742565b5060408201518160020160006101000a81548173ffffffffffffffffffffffffffffffffffffffff021916908373ffffffffffffffffffffffffffffffffffffffff16021790555090505083600560003373ffffffffffffffffffffffffffffffffffffffff1673ffffffffffffffffffffffffffffffffffffffff1681526020019081526020016000209080519060200190610a899291906117c2565b5060006008826040518082805190602001908083835b60208310610ac25780518252602082019150602081019050602083039250610a9f565b6001836020036101000a03801982511681845116808217855250505050505090500191505090815260200160405180910390208190555060016008856040518082805190602001908083835b60208310610b315780518252602082019150602081019050602083039250610b0e565b6001836020036101000a0380198251168184511680821785525050505050509050019150509081526020016040518091039020819055507fd9091ddaa6d8232d99a7c3a9b95e8bd651ce4c084e7eaefb587d2c4b8b82cbc38433600260405180806020018473ffffffffffffffffffffffffffffffffffffffff1673ffffffffffffffffffffffffffffffffffffffff168152602001838152602001828103825285818151815260200191508051906020019080838360005b83811015610c05578082015181840152602081019050610bea565b50505050905090810190601f168015610c325780820380516001836020036101000a031916815260200191505b5094505050505060405180910390a1610d20565b7fd9091ddaa6d8232d99a7c3a9b95e8bd651ce4c084e7eaefb587d2c4b8b82cbc38433600360405180806020018473ffffffffffffffffffffffffffffffffffffffff1673ffffffffffffffffffffffffffffffffffffffff168152602001838152602001828103825285818151815260200191508051906020019080838360005b83811015610ce3578082015181840152602081019050610cc8565b50505050905090810190601f168015610d105780820380516001836020036101000a031916815260200191505b5094505050505060405180910390a15b505b50919050565b565b60606040518060400160405280600b81526020017f4920616d20616c697665210000000000000000000000000000000000000000008152509050604051806080016040528060005481526020018281526020013373ffffffffffffffffffffffffffffffffffffffff168152602001838152506003600080548152602001908152602001600020600082015181600001556020820151816001019080519060200190610dd7929190611742565b5060408201518160020160006101000a81548173ffffffffffffffffffffffffffffffffffffffff021916908373ffffffffffffffffffffffffffffffffffffffff1602179055506060820151816003019080519060200190610e3b929190611742565b50905050600660003373ffffffffffffffffffffffffffffffffffffffff1673ffffffffffffffffffffffffffffffffffffffff16815260200190815260200160002060008154809291906001019190505550600080815480929190600101919050555060016008836040518082805190602001908083835b60208310610ed75780518252602082019150602081019050602083039250610eb4565b6001836020036101000a0380198251168184511680821785525050505050509050019150509081526020016040518091039020819055506002600081548092919060010191905055505050565b6000600660003373ffffffffffffffffffffffffffffffffffffffff1673ffffffffffffffffffffffffffffffffffffffff1681526020019081526020016000205414610f7057600080fd5b604051806060016040528060015481526020018281526020013373ffffffffffffffffffffffffffffffffffffffff16815250600460006001548152602001908152602001600020600082015181600001556020820151816001019080519060200190610fde929190611742565b5060408201518160020160006101000a81548173ffffffffffffffffffffffffffffffffffffffff021916908373ffffffffffffffffffffffffffffffffffffffff16021790555090505080600560003373ffffffffffffffffffffffffffffffffffffffff1673ffffffffffffffffffffffffffffffffffffffff168152602001908152602001600020908051906020019061107c9291906117c2565b50600154600760003373ffffffffffffffffffffffffffffffffffffffff1673ffffffffffffffffffffffffffffffffffffffff1681526020019081526020016000208190555060016000815480929190600101919050555050565b6004602052806000526040600020600091509050806000015490806001018054600181600116156101000203166002900480601f01602080910402602001604051908101604052809291908181526020018280546001816001161561010002031660029004801561118a5780601f1061115f5761010080835404028352916020019161118a565b820191906000526020600020905b81548152906001019060200180831161116d57829003601f168201915b5050505050908060020160009054906101000a900473ffffffffffffffffffffffffffffffffffffffff16905083565b6000600660003373ffffffffffffffffffffffffffffffffffffffff1673ffffffffffffffffffffffffffffffffffffffff168152602001908152602001600020541415611241576112406040518060400160405280600981526020017f416e6f6e796d6f75730000000000000000000000000000000000000000000000815250610f24565b5b6060600560003373ffffffffffffffffffffffffffffffffffffffff1673ffffffffffffffffffffffffffffffffffffffff1681526020019081526020016000208054600181600116156101000203166002900480601f0160208091040260200160405190810160405280929190818152602001828054600181600116156101000203166002900480156113165780601f106112eb57610100808354040283529160200191611316565b820191906000526020600020905b8154815290600101906020018083116112f957829003601f168201915b50505050509050604051806080016040528060005481526020018381526020013373ffffffffffffffffffffffffffffffffffffffff168152602001828152506003600080548152602001908152602001600020600082015181600001556020820151816001019080519060200190611390929190611742565b5060408201518160020160006101000a81548173ffffffffffffffffffffffffffffffffffffffff021916908373ffffffffffffffffffffffffffffffffffffffff16021790555060608201518160030190805190602001906113f4929190611742565b50905050600660003373ffffffffffffffffffffffffffffffffffffffff1673ffffffffffffffffffffffffffffffffffffffff1681526020019081526020016000206000815480929190600101919050555060008081548092919060010191905055505050565b60606040518060400160405280600d81526020017f48656c6c6f2c20576f726c6421000000000000000000000000000000000000008152509050604051806080016040528060005481526020018281526020013373ffffffffffffffffffffffffffffffffffffffff1681526020016040518060400160405280600781526020017f67656e6573697300000000000000000000000000000000000000000000000000815250815250600360008054815260200190815260200160002060008201518160000155602082015181600101908051906020019061153e929190611742565b5060408201518160020160006101000a81548173ffffffffffffffffffffffffffffffffffffffff021916908373ffffffffffffffffffffffffffffffffffffffff16021790555060608201518160030190805190602001906115a2929190611742565b50905050600080815480929190600101919050555050565b565b60025481565b6003602052806000526040600020600091509050806000015490806001018054600181600116156101000203166002900480601f0160208091040260200160405190810160405280929190818152602001828054600181600116156101000203166002900480156116745780601f1061164957610100808354040283529160200191611674565b820191906000526020600020905b81548152906001019060200180831161165757829003601f168201915b5050505050908060020160009054906101000a900473ffffffffffffffffffffffffffffffffffffffff1690806003018054600181600116156101000203166002900480601f0160208091040260200160405190810160405280929190818152602001828054600181600116156101000203166002900480156117385780601f1061170d57610100808354040283529160200191611738565b820191906000526020600020905b81548152906001019060200180831161171b57829003601f168201915b5050505050905084565b828054600181600116156101000203166002900490600052602060002090601f016020900481019282601f1061178357805160ff19168380011785556117b1565b828001600101855582156117b1579182015b828111156117b0578251825591602001919060010190611795565b5b5090506117be9190611842565b5090565b828054600181600116156101000203166002900490600052602060002090601f016020900481019282601f1061180357805160ff1916838001178555611831565b82800160010185558215611831579182015b82811115611830578251825591602001919060010190611815565b5b50905061183e9190611842565b5090565b61186491905b80821115611860576000816000905550600101611848565b5090565b9056fea265627a7a72315820a6c26cf8319ef4bf830bf19a1d7f03e65867c5cd0f795eeefdc43a3a7a16c2c164736f6c63430005100032",
  "source": "pragma solidity ^0.5.16;\n\ncontract profile {\n\n\n    uint public thoughtCount = 0;\n    uint userCount = 0;\n    uint public numHandles = 0;\n\n    struct Thought {\n      uint id;\n      string thought;\n      address sender;\n      string handle;\n    }\n\n    struct User {\n      uint id;\n      string handle;\n      address user;\n    }\n\n\n    //Thought[] public thoughts;\n\n\n    mapping(uint => Thought) public thoughts;\n    mapping(uint => User) public users;\n    mapping (address => string) handles;\n    mapping (address => uint) senderThoughts;\n    mapping (address => uint) senderID;\n    mapping (string => uint) handleList;\n\n\n    constructor () public {\n      genesisThought();\n    }\n\n    function getUser () public {\n\n    }\n\n    function createThought(string memory _content) public {\n\n      if (senderThoughts[msg.sender] == 0) {\n        newUser(\"Anonymous\");\n      }\n\n      string memory user = handles[msg.sender];\n\n      thoughts[thoughtCount] = Thought(thoughtCount, _content, msg.sender, user);\n      senderThoughts[msg.sender]++;\n      thoughtCount++;\n\n    }\n\n    function firstThought(string memory _handle) public {\n      string memory ft = \"I am alive!\";\n      thoughts[thoughtCount] = Thought(thoughtCount, ft, msg.sender, _handle);\n      senderThoughts[msg.sender]++;\n      thoughtCount ++;\n      handleList[_handle] = 1;\n      numHandles ++;\n    }\n\n\n    function genesisThought() public {\n      string memory ft = \"Hello, World!\";\n      thoughts[thoughtCount] = Thought(thoughtCount, ft, msg.sender, \"genesis\");\n      thoughtCount ++;\n    }\n\n    function readThoughts() public {\n\n    }\n\n    function newUser(string memory _handle) public {\n      require(senderThoughts[msg.sender] == 0);\n      users[userCount] = User(userCount, _handle, msg.sender);\n      handles[msg.sender] = _handle;\n      senderID[msg.sender] = userCount;\n      userCount++;\n    }\n\n\n\n    event checkHandle(string _handle, address sndr, uint avail);\n\n\n    function updateUser(string memory _handle) public returns (uint) {\n\n      uint sndr = senderID[msg.sender];\n\n      if (senderThoughts[msg.sender] == 0) {\n        firstThought(_handle);\n        emit checkHandle (_handle, msg.sender, 1);\n        //return 1;\n      }\n\n      else {\n\n        string memory handleStorage = handles[msg.sender];\n\n        if (handleList[_handle] != 1) {\n\n          if (handleList[_handle] != 0) {\n            numHandles++;\n          }\n\n          users[sndr] = User(sndr, _handle, msg.sender);\n          handles[msg.sender] = _handle;\n          handleList[handleStorage] = 0;\n          handleList[_handle] = 1;\n          emit checkHandle (_handle, msg.sender, 2);\n          //return 2;\n        }\n        else {\n          emit checkHandle (_handle, msg.sender, 3);\n          //return 3;\n        }\n      }\n    }\n\n\n\n  }\n",
  "sourcePath": "/Users/reuben/Desktop/school/osu/capstone/synapse-project/contracts/profile.sol",
  "compiler": {
    "name": "solc",
    "version": "0.5.16+commit.9c3226ce.Emscripten.clang"
  },
  "schemaVersion": "3.0.22",
  "updatedAt": "2020-02-24T21:30:23.054Z",
  "networkType": "ethereum",
  "devdoc": {
    "methods": {}
  },
  "userdoc": {
    "methods": {}
  }
}