{
  "contractName": "profile",
  "abi": [
    {
      "inputs": [],
      "payable": false,
      "stateMutability": "nonpayable",
      "type": "constructor"
    },
    {
      "anonymous": false,
      "inputs": [
        {
          "indexed": false,
          "internalType": "string",
          "name": "_handle",
          "type": "string"
        },
        {
          "indexed": false,
          "internalType": "address",
          "name": "sndr",
          "type": "address"
        },
        {
          "indexed": false,
          "internalType": "uint256",
          "name": "avail",
          "type": "uint256"
        }
      ],
      "name": "checkHandle",
      "type": "event"
    },
    {
      "constant": true,
      "inputs": [
        {
          "internalType": "string",
          "name": "",
          "type": "string"
        }
      ],
      "name": "handleList",
      "outputs": [
        {
          "internalType": "uint256",
          "name": "",
          "type": "uint256"
        }
      ],
      "payable": false,
      "stateMutability": "view",
      "type": "function"
    },
    {
      "constant": true,
      "inputs": [],
      "name": "numHandles",
      "outputs": [
        {
          "internalType": "uint256",
          "name": "",
          "type": "uint256"
        }
      ],
      "payable": false,
      "stateMutability": "view",
      "type": "function"
    },
    {
      "constant": true,
      "inputs": [],
      "name": "thoughtCount",
      "outputs": [
        {
          "internalType": "uint256",
          "name": "",
          "type": "uint256"
        }
      ],
      "payable": false,
      "stateMutability": "view",
      "type": "function"
    },
    {
      "constant": true,
      "inputs": [
        {
          "internalType": "uint256",
          "name": "",
          "type": "uint256"
        }
      ],
      "name": "thoughts",
      "outputs": [
        {
          "internalType": "uint256",
          "name": "id",
          "type": "uint256"
        },
        {
          "internalType": "string",
          "name": "thought",
          "type": "string"
        },
        {
          "internalType": "address",
          "name": "sender",
          "type": "address"
        },
        {
          "internalType": "string",
          "name": "handle",
          "type": "string"
        }
      ],
      "payable": false,
      "stateMutability": "view",
      "type": "function"
    },
    {
      "constant": true,
      "inputs": [
        {
          "internalType": "uint256",
          "name": "",
          "type": "uint256"
        }
      ],
      "name": "users",
      "outputs": [
        {
          "internalType": "uint256",
          "name": "id",
          "type": "uint256"
        },
        {
          "internalType": "string",
          "name": "handle",
          "type": "string"
        },
        {
          "internalType": "address",
          "name": "user",
          "type": "address"
        }
      ],
      "payable": false,
      "stateMutability": "view",
      "type": "function"
    },
    {
      "constant": false,
      "inputs": [],
      "name": "getUser",
      "outputs": [],
      "payable": false,
      "stateMutability": "nonpayable",
      "type": "function"
    },
    {
      "constant": false,
      "inputs": [
        {
          "internalType": "string",
          "name": "_content",
          "type": "string"
        }
      ],
      "name": "createThought",
      "outputs": [],
      "payable": false,
      "stateMutability": "nonpayable",
      "type": "function"
    },
    {
      "constant": false,
      "inputs": [
        {
          "internalType": "string",
          "name": "_handle",
          "type": "string"
        }
      ],
      "name": "firstThought",
      "outputs": [],
      "payable": false,
      "stateMutability": "nonpayable",
      "type": "function"
    },
    {
      "constant": false,
      "inputs": [],
      "name": "genesisThought",
      "outputs": [],
      "payable": false,
      "stateMutability": "nonpayable",
      "type": "function"
    },
    {
      "constant": false,
      "inputs": [],
      "name": "readThoughts",
      "outputs": [],
      "payable": false,
      "stateMutability": "nonpayable",
      "type": "function"
    },
    {
      "constant": false,
      "inputs": [
        {
          "internalType": "string",
          "name": "_handle",
          "type": "string"
        }
      ],
      "name": "newUser",
      "outputs": [],
      "payable": false,
      "stateMutability": "nonpayable",
      "type": "function"
    },
    {
      "constant": false,
      "inputs": [
        {
          "internalType": "string",
          "name": "_handle",
          "type": "string"
        }
      ],
      "name": "updateUser",
      "outputs": [
        {
          "internalType": "uint256",
          "name": "",
          "type": "uint256"
        }
      ],
      "payable": false,
      "stateMutability": "nonpayable",
      "type": "function"
    }
  ],
  "bytecode": "0x608060405260008055600060015560006002553480156200001f57600080fd5b50620000306200003660201b60201c565b6200029d565b60606040518060400160405280600d81526020017f48656c6c6f2c20576f726c6421000000000000000000000000000000000000008152509050604051806080016040528060005481526020018281526020013373ffffffffffffffffffffffffffffffffffffffff1681526020016040518060400160405280600781526020017f67656e657369730000000000000000000000000000000000000000000000000081525081525060036000805481526020019081526020016000206000820151816000015560208201518160010190805190602001906200011a929190620001ee565b5060408201518160020160006101000a81548173ffffffffffffffffffffffffffffffffffffffff021916908373ffffffffffffffffffffffffffffffffffffffff160217905550606082015181600301908051906020019062000180929190620001ee565b5090505060008081548092919060010191905055506001600860405180807f73796e6170736500000000000000000000000000000000000000000000000000815250600701905090815260200160405180910390208190555060026000815480929190600101919050555050565b828054600181600116156101000203166002900490600052602060002090601f016020900481019282601f106200023157805160ff191683800117855562000262565b8280016001018555821562000262579182015b828111156200026157825182559160200191906001019062000244565b5b50905062000271919062000275565b5090565b6200029a91905b80821115620002965760008160009055506001016200027c565b5090565b90565b6119fa80620002ad6000396000f3fe608060405234801561001057600080fd5b50600436106100b45760003560e01c806347aa1c1b1161007157806347aa1c1b146104075780634fc26b5f146104c257806363af10bc14610591578063832880e71461059b578063cce284a0146105a5578063e79e5195146105c3576100b4565b806306504bca146100b95780630b4f12f6146100d757806314b9c44f146101a65780631b2ee3bb146101b05780631eed11921461026b578063365b98b214610326575b600080fd5b6100c1610710565b6040518082815260200191505060405180910390f35b610190600480360360208110156100ed57600080fd5b810190808035906020019064010000000081111561010a57600080fd5b82018360208201111561011c57600080fd5b8035906020019184600183028401116401000000008311171561013e57600080fd5b91908080601f016020809104026020016040519081016040528093929190818152602001838380828437600081840152601f19601f820116905080830192505050505050509192919290505050610716565b6040518082815260200191505060405180910390f35b6101ae610e02565b005b610269600480360360208110156101c657600080fd5b81019080803590602001906401000000008111156101e357600080fd5b8201836020820111156101f557600080fd5b8035906020019184600183028401116401000000008311171561021757600080fd5b91908080601f016020809104026020016040519081016040528093929190818152602001838380828437600081840152601f19601f820116905080830192505050505050509192919290505050610e04565b005b6103246004803603602081101561028157600080fd5b810190808035906020019064010000000081111561029e57600080fd5b8201836020820111156102b057600080fd5b803590602001918460018302840111640100000000831117156102d257600080fd5b91908080601f016020809104026020016040519081016040528093929190818152602001838380828437600081840152601f19601f820116905080830192505050505050509192919290505050610ffe565b005b6103526004803603602081101561033c57600080fd5b81019080803590602001909291905050506111b2565b60405180848152602001806020018373ffffffffffffffffffffffffffffffffffffffff1673ffffffffffffffffffffffffffffffffffffffff168152602001828103825284818151815260200191508051906020019080838360005b838110156103ca5780820151818401526020810190506103af565b50505050905090810190601f1680156103f75780820380516001836020036101000a031916815260200191505b5094505050505060405180910390f35b6104c06004803603602081101561041d57600080fd5b810190808035906020019064010000000081111561043a57600080fd5b82018360208201111561044c57600080fd5b8035906020019184600183028401116401000000008311171561046e57600080fd5b91908080601f016020809104026020016040519081016040528093929190818152602001838380828437600081840152601f19601f820116905080830192505050505050509192919290505050611294565b005b61057b600480360360208110156104d857600080fd5b81019080803590602001906401000000008111156104f557600080fd5b82018360208201111561050757600080fd5b8035906020019184600183028401116401000000008311171561052957600080fd5b91908080601f016020809104026020016040519081016040528093929190818152602001838380828437600081840152601f19601f820116905080830192505050505050509192919290505050611536565b6040518082815260200191505060405180910390f35b610599611564565b005b6105a3611718565b005b6105ad61171a565b6040518082815260200191505060405180910390f35b6105ef600480360360208110156105d957600080fd5b8101908080359060200190929190505050611720565b60405180858152602001806020018473ffffffffffffffffffffffffffffffffffffffff1673ffffffffffffffffffffffffffffffffffffffff16815260200180602001838103835286818151815260200191508051906020019080838360005b8381101561066b578082015181840152602081019050610650565b50505050905090810190601f1680156106985780820380516001836020036101000a031916815260200191505b50838103825284818151815260200191508051906020019080838360005b838110156106d15780820151818401526020810190506106b6565b50505050905090810190601f1680156106fe5780820380516001836020036101000a031916815260200191505b50965050505050505060405180910390f35b60005481565b600080600760003373ffffffffffffffffffffffffffffffffffffffff1673ffffffffffffffffffffffffffffffffffffffff1681526020019081526020016000205490506000600660003373ffffffffffffffffffffffffffffffffffffffff1673ffffffffffffffffffffffffffffffffffffffff16815260200190815260200160002054141561088a576107ac83610e04565b7fd9091ddaa6d8232d99a7c3a9b95e8bd651ce4c084e7eaefb587d2c4b8b82cbc38333600160405180806020018473ffffffffffffffffffffffffffffffffffffffff1673ffffffffffffffffffffffffffffffffffffffff168152602001838152602001828103825285818151815260200191508051906020019080838360005b8381101561084957808201518184015260208101905061082e565b50505050905090810190601f1680156108765780820380516001836020036101000a031916815260200191505b5094505050505060405180910390a1610dfc565b6060600560003373ffffffffffffffffffffffffffffffffffffffff1673ffffffffffffffffffffffffffffffffffffffff1681526020019081526020016000208054600181600116156101000203166002900480601f01602080910402602001604051908101604052809291908181526020018280546001816001161561010002031660029004801561095f5780601f106109345761010080835404028352916020019161095f565b820191906000526020600020905b81548152906001019060200180831161094257829003601f168201915b5050505050905060016008856040518082805190602001908083835b6020831061099e578051825260208201915060208101905060208303925061097b565b6001836020036101000a03801982511681845116808217855250505050505090500191505090815260200160405180910390205414610d205760006008856040518082805190602001908083835b60208310610a0f57805182526020820191506020810190506020830392506109ec565b6001836020036101000a03801982511681845116808217855250505050505090500191505090815260200160405180910390205414610a5b576002600081548092919060010191905055505b60405180606001604052808381526020018581526020013373ffffffffffffffffffffffffffffffffffffffff1681525060046000848152602001908152602001600020600082015181600001556020820151816001019080519060200190610ac59291906118a0565b5060408201518160020160006101000a81548173ffffffffffffffffffffffffffffffffffffffff021916908373ffffffffffffffffffffffffffffffffffffffff16021790555090505083600560003373ffffffffffffffffffffffffffffffffffffffff1673ffffffffffffffffffffffffffffffffffffffff1681526020019081526020016000209080519060200190610b63929190611920565b5060006008826040518082805190602001908083835b60208310610b9c5780518252602082019150602081019050602083039250610b79565b6001836020036101000a03801982511681845116808217855250505050505090500191505090815260200160405180910390208190555060016008856040518082805190602001908083835b60208310610c0b5780518252602082019150602081019050602083039250610be8565b6001836020036101000a0380198251168184511680821785525050505050509050019150509081526020016040518091039020819055507fd9091ddaa6d8232d99a7c3a9b95e8bd651ce4c084e7eaefb587d2c4b8b82cbc38433600260405180806020018473ffffffffffffffffffffffffffffffffffffffff1673ffffffffffffffffffffffffffffffffffffffff168152602001838152602001828103825285818151815260200191508051906020019080838360005b83811015610cdf578082015181840152602081019050610cc4565b50505050905090810190601f168015610d0c5780820380516001836020036101000a031916815260200191505b5094505050505060405180910390a1610dfa565b7fd9091ddaa6d8232d99a7c3a9b95e8bd651ce4c084e7eaefb587d2c4b8b82cbc38433600360405180806020018473ffffffffffffffffffffffffffffffffffffffff1673ffffffffffffffffffffffffffffffffffffffff168152602001838152602001828103825285818151815260200191508051906020019080838360005b83811015610dbd578082015181840152602081019050610da2565b50505050905090810190601f168015610dea5780820380516001836020036101000a031916815260200191505b5094505050505060405180910390a15b505b50919050565b565b60606040518060400160405280600b81526020017f4920616d20616c697665210000000000000000000000000000000000000000008152509050604051806080016040528060005481526020018281526020013373ffffffffffffffffffffffffffffffffffffffff168152602001838152506003600080548152602001908152602001600020600082015181600001556020820151816001019080519060200190610eb19291906118a0565b5060408201518160020160006101000a81548173ffffffffffffffffffffffffffffffffffffffff021916908373ffffffffffffffffffffffffffffffffffffffff1602179055506060820151816003019080519060200190610f159291906118a0565b50905050600660003373ffffffffffffffffffffffffffffffffffffffff1673ffffffffffffffffffffffffffffffffffffffff16815260200190815260200160002060008154809291906001019190505550600080815480929190600101919050555060016008836040518082805190602001908083835b60208310610fb15780518252602082019150602081019050602083039250610f8e565b6001836020036101000a0380198251168184511680821785525050505050509050019150509081526020016040518091039020819055506002600081548092919060010191905055505050565b6000600660003373ffffffffffffffffffffffffffffffffffffffff1673ffffffffffffffffffffffffffffffffffffffff168152602001908152602001600020541461104a57600080fd5b604051806060016040528060015481526020018281526020013373ffffffffffffffffffffffffffffffffffffffff168152506004600060015481526020019081526020016000206000820151816000015560208201518160010190805190602001906110b89291906118a0565b5060408201518160020160006101000a81548173ffffffffffffffffffffffffffffffffffffffff021916908373ffffffffffffffffffffffffffffffffffffffff16021790555090505080600560003373ffffffffffffffffffffffffffffffffffffffff1673ffffffffffffffffffffffffffffffffffffffff1681526020019081526020016000209080519060200190611156929190611920565b50600154600760003373ffffffffffffffffffffffffffffffffffffffff1673ffffffffffffffffffffffffffffffffffffffff1681526020019081526020016000208190555060016000815480929190600101919050555050565b6004602052806000526040600020600091509050806000015490806001018054600181600116156101000203166002900480601f0160208091040260200160405190810160405280929190818152602001828054600181600116156101000203166002900480156112645780601f1061123957610100808354040283529160200191611264565b820191906000526020600020905b81548152906001019060200180831161124757829003601f168201915b5050505050908060020160009054906101000a900473ffffffffffffffffffffffffffffffffffffffff16905083565b6000600660003373ffffffffffffffffffffffffffffffffffffffff1673ffffffffffffffffffffffffffffffffffffffff16815260200190815260200160002054141561131b5761131a6040518060400160405280600981526020017f416e6f6e796d6f75730000000000000000000000000000000000000000000000815250610ffe565b5b6060600560003373ffffffffffffffffffffffffffffffffffffffff1673ffffffffffffffffffffffffffffffffffffffff1681526020019081526020016000208054600181600116156101000203166002900480601f0160208091040260200160405190810160405280929190818152602001828054600181600116156101000203166002900480156113f05780601f106113c5576101008083540402835291602001916113f0565b820191906000526020600020905b8154815290600101906020018083116113d357829003601f168201915b50505050509050604051806080016040528060005481526020018381526020013373ffffffffffffffffffffffffffffffffffffffff16815260200182815250600360008054815260200190815260200160002060008201518160000155602082015181600101908051906020019061146a9291906118a0565b5060408201518160020160006101000a81548173ffffffffffffffffffffffffffffffffffffffff021916908373ffffffffffffffffffffffffffffffffffffffff16021790555060608201518160030190805190602001906114ce9291906118a0565b50905050600660003373ffffffffffffffffffffffffffffffffffffffff1673ffffffffffffffffffffffffffffffffffffffff1681526020019081526020016000206000815480929190600101919050555060008081548092919060010191905055505050565b6008818051602081018201805184825260208301602085012081835280955050505050506000915090505481565b60606040518060400160405280600d81526020017f48656c6c6f2c20576f726c6421000000000000000000000000000000000000008152509050604051806080016040528060005481526020018281526020013373ffffffffffffffffffffffffffffffffffffffff1681526020016040518060400160405280600781526020017f67656e657369730000000000000000000000000000000000000000000000000081525081525060036000805481526020019081526020016000206000820151816000015560208201518160010190805190602001906116469291906118a0565b5060408201518160020160006101000a81548173ffffffffffffffffffffffffffffffffffffffff021916908373ffffffffffffffffffffffffffffffffffffffff16021790555060608201518160030190805190602001906116aa9291906118a0565b5090505060008081548092919060010191905055506001600860405180807f73796e6170736500000000000000000000000000000000000000000000000000815250600701905090815260200160405180910390208190555060026000815480929190600101919050555050565b565b60025481565b6003602052806000526040600020600091509050806000015490806001018054600181600116156101000203166002900480601f0160208091040260200160405190810160405280929190818152602001828054600181600116156101000203166002900480156117d25780601f106117a7576101008083540402835291602001916117d2565b820191906000526020600020905b8154815290600101906020018083116117b557829003601f168201915b5050505050908060020160009054906101000a900473ffffffffffffffffffffffffffffffffffffffff1690806003018054600181600116156101000203166002900480601f0160208091040260200160405190810160405280929190818152602001828054600181600116156101000203166002900480156118965780601f1061186b57610100808354040283529160200191611896565b820191906000526020600020905b81548152906001019060200180831161187957829003601f168201915b5050505050905084565b828054600181600116156101000203166002900490600052602060002090601f016020900481019282601f106118e157805160ff191683800117855561190f565b8280016001018555821561190f579182015b8281111561190e5782518255916020019190600101906118f3565b5b50905061191c91906119a0565b5090565b828054600181600116156101000203166002900490600052602060002090601f016020900481019282601f1061196157805160ff191683800117855561198f565b8280016001018555821561198f579182015b8281111561198e578251825591602001919060010190611973565b5b50905061199c91906119a0565b5090565b6119c291905b808211156119be5760008160009055506001016119a6565b5090565b9056fea265627a7a72315820046f15c32f91df2931b66d686db0fa5ca87de588044abcadb0202e844006de4664736f6c63430005100032",
  "source": "pragma solidity ^0.5.16;\n\ncontract profile {\n\n\n    uint public thoughtCount = 0;\n    uint userCount = 0;\n    uint public numHandles = 0;\n\n    struct Thought {\n      uint id;\n      string thought;\n      address sender;\n      string handle;\n    }\n\n    struct User {\n      uint id;\n      string handle;\n      address user;\n    }\n\n\n    //Thought[] public thoughts;\n\n\n    mapping(uint => Thought) public thoughts;\n    mapping(uint => User) public users;\n    mapping (address => string) handles;\n    mapping (address => uint) senderThoughts;\n    mapping (address => uint) senderID;\n    mapping (string => uint) public handleList;\n\n\n    constructor () public {\n      genesisThought();\n    }\n\n    function getUser () public {\n\n    }\n\n    function createThought(string memory _content) public {\n\n      if (senderThoughts[msg.sender] == 0) {\n        newUser(\"Anonymous\");\n      }\n\n      string memory user = handles[msg.sender];\n\n      thoughts[thoughtCount] = Thought(thoughtCount, _content, msg.sender, user);\n      senderThoughts[msg.sender]++;\n      thoughtCount++;\n\n    }\n\n    function firstThought(string memory _handle) public {\n      string memory ft = \"I am alive!\";\n      thoughts[thoughtCount] = Thought(thoughtCount, ft, msg.sender, _handle);\n      senderThoughts[msg.sender]++;\n      thoughtCount ++;\n      handleList[_handle] = 1;\n      numHandles ++;\n    }\n\n\n    function genesisThought() public {\n      string memory ft = \"Hello, World!\";\n      thoughts[thoughtCount] = Thought(thoughtCount, ft, msg.sender, \"genesis\");\n      thoughtCount ++;\n      handleList[\"synapse\"] = 1;\n      numHandles ++;\n    }\n\n    function readThoughts() public {\n\n    }\n\n    function newUser(string memory _handle) public {\n      require(senderThoughts[msg.sender] == 0);\n      users[userCount] = User(userCount, _handle, msg.sender);\n      handles[msg.sender] = _handle;\n      senderID[msg.sender] = userCount;\n      userCount++;\n    }\n\n\n\n    event checkHandle(string _handle, address sndr, uint avail);\n\n\n    function updateUser(string memory _handle) public returns (uint) {\n\n      uint sndr = senderID[msg.sender];\n\n      if (senderThoughts[msg.sender] == 0) {\n        firstThought(_handle);\n        emit checkHandle (_handle, msg.sender, 1);\n        //return 1;\n      }\n\n      else {\n\n        string memory handleStorage = handles[msg.sender];\n\n        if (handleList[_handle] != 1) {\n\n          if (handleList[_handle] != 0) {\n            numHandles++;\n          }\n\n          users[sndr] = User(sndr, _handle, msg.sender);\n          handles[msg.sender] = _handle;\n          handleList[handleStorage] = 0;\n          handleList[_handle] = 1;\n          emit checkHandle (_handle, msg.sender, 2);\n          //return 2;\n        }\n        else {\n          emit checkHandle (_handle, msg.sender, 3);\n          //return 3;\n        }\n      }\n    }\n\n\n\n  }\n",
  "sourcePath": "/Users/reuben/Desktop/school/osu/capstone/synapse-project/contracts/profile.sol",
  "compiler": {
    "name": "solc",
    "version": "0.5.16+commit.9c3226ce.Emscripten.clang"
  },
  "schemaVersion": "3.0.22",
  "updatedAt": "2020-02-24T21:44:18.864Z",
  "networkType": "ethereum",
  "devdoc": {
    "methods": {}
  },
  "userdoc": {
    "methods": {}
  }
}