{
  "contractName": "synapse",
  "abi": [
    {
      "inputs": [],
      "payable": false,
      "stateMutability": "nonpayable",
      "type": "constructor"
    },
    {
      "constant": true,
      "inputs": [],
      "name": "thoughtCount",
      "outputs": [
        {
          "internalType": "uint256",
          "name": "",
          "type": "uint256"
        }
      ],
      "payable": false,
      "stateMutability": "view",
      "type": "function"
    },
    {
      "constant": true,
      "inputs": [
        {
          "internalType": "uint256",
          "name": "",
          "type": "uint256"
        }
      ],
      "name": "thoughts",
      "outputs": [
        {
          "internalType": "uint256",
          "name": "id",
          "type": "uint256"
        },
        {
          "internalType": "string",
          "name": "thought",
          "type": "string"
        },
        {
          "internalType": "address",
          "name": "sender",
          "type": "address"
        },
        {
          "internalType": "string",
          "name": "handle",
          "type": "string"
        }
      ],
      "payable": false,
      "stateMutability": "view",
      "type": "function"
    },
    {
      "constant": true,
      "inputs": [
        {
          "internalType": "uint256",
          "name": "",
          "type": "uint256"
        }
      ],
      "name": "users",
      "outputs": [
        {
          "internalType": "uint256",
          "name": "id",
          "type": "uint256"
        },
        {
          "internalType": "string",
          "name": "handle",
          "type": "string"
        },
        {
          "internalType": "address",
          "name": "user",
          "type": "address"
        }
      ],
      "payable": false,
      "stateMutability": "view",
      "type": "function"
    },
    {
      "constant": false,
      "inputs": [],
      "name": "getUser",
      "outputs": [],
      "payable": false,
      "stateMutability": "nonpayable",
      "type": "function"
    },
    {
      "constant": false,
      "inputs": [
        {
          "internalType": "string",
          "name": "_content",
          "type": "string"
        }
      ],
      "name": "createThought",
      "outputs": [],
      "payable": false,
      "stateMutability": "nonpayable",
      "type": "function"
    },
    {
      "constant": false,
      "inputs": [],
      "name": "firstThought",
      "outputs": [],
      "payable": false,
      "stateMutability": "nonpayable",
      "type": "function"
    },
    {
      "constant": false,
      "inputs": [],
      "name": "readThoughts",
      "outputs": [],
      "payable": false,
      "stateMutability": "nonpayable",
      "type": "function"
    },
    {
      "constant": false,
      "inputs": [
        {
          "internalType": "string",
          "name": "_handle",
          "type": "string"
        }
      ],
      "name": "newUser",
      "outputs": [],
      "payable": false,
      "stateMutability": "nonpayable",
      "type": "function"
    },
    {
      "constant": false,
      "inputs": [
        {
          "internalType": "string",
          "name": "_handle",
          "type": "string"
        },
        {
          "internalType": "uint256",
          "name": "_user",
          "type": "uint256"
        }
      ],
      "name": "updateUser",
      "outputs": [],
      "payable": false,
      "stateMutability": "nonpayable",
      "type": "function"
    }
  ],
  "bytecode": "0x60806040526000805560006001553480156200001a57600080fd5b506200002b6200003160201b60201c565b62000242565b60606040518060400160405280600d81526020017f48656c6c6f2c20576f726c6421000000000000000000000000000000000000008152509050604051806080016040528060005481526020018281526020013373ffffffffffffffffffffffffffffffffffffffff1681526020016040518060400160405280600781526020017f67656e657369730000000000000000000000000000000000000000000000000081525081525060026000805481526020019081526020016000206000820151816000015560208201518160010190805190602001906200011592919062000193565b5060408201518160020160006101000a81548173ffffffffffffffffffffffffffffffffffffffff021916908373ffffffffffffffffffffffffffffffffffffffff16021790555060608201518160030190805190602001906200017b92919062000193565b50905050600080815480929190600101919050555050565b828054600181600116156101000203166002900490600052602060002090601f016020900481019282601f10620001d657805160ff191683800117855562000207565b8280016001018555821562000207579182015b8281111562000206578251825591602001919060010190620001e9565b5b5090506200021691906200021a565b5090565b6200023f91905b808211156200023b57600081600090555060010162000221565b5090565b90565b610ef780620002526000396000f3fe608060405234801561001057600080fd5b50600436106100935760003560e01c8063365b98b211610066578063365b98b21461024057806347aa1c1b14610321578063832880e7146103dc578063e79e5195146103e6578063e94439871461053357610093565b806306504bca1461009857806314b9c44f146100b65780631eed1192146100c05780632bf9866f1461017b575b600080fd5b6100a061053d565b6040518082815260200191505060405180910390f35b6100be610543565b005b610179600480360360208110156100d657600080fd5b81019080803590602001906401000000008111156100f357600080fd5b82018360208201111561010557600080fd5b8035906020019184600183028401116401000000008311171561012757600080fd5b91908080601f016020809104026020016040519081016040528093929190818152602001838380828437600081840152601f19601f820116905080830192505050505050509192919290505050610545565b005b61023e6004803603604081101561019157600080fd5b81019080803590602001906401000000008111156101ae57600080fd5b8201836020820111156101c057600080fd5b803590602001918460018302840111640100000000831117156101e257600080fd5b91908080601f016020809104026020016040519081016040528093929190818152602001838380828437600081840152601f19601f820116905080830192505050505050509192919290803590602001909291905050506106b3565b005b61026c6004803603602081101561025657600080fd5b81019080803590602001909291905050506107c0565b60405180848152602001806020018373ffffffffffffffffffffffffffffffffffffffff1673ffffffffffffffffffffffffffffffffffffffff168152602001828103825284818151815260200191508051906020019080838360005b838110156102e45780820151818401526020810190506102c9565b50505050905090810190601f1680156103115780820380516001836020036101000a031916815260200191505b5094505050505060405180910390f35b6103da6004803603602081101561033757600080fd5b810190808035906020019064010000000081111561035457600080fd5b82018360208201111561036657600080fd5b8035906020019184600183028401116401000000008311171561038857600080fd5b91908080601f016020809104026020016040519081016040528093929190818152602001838380828437600081840152601f19601f8201169050808301925050505050505091929192905050506108a2565b005b6103e4610abd565b005b610412600480360360208110156103fc57600080fd5b8101908080359060200190929190505050610abf565b60405180858152602001806020018473ffffffffffffffffffffffffffffffffffffffff1673ffffffffffffffffffffffffffffffffffffffff16815260200180602001838103835286818151815260200191508051906020019080838360005b8381101561048e578082015181840152602081019050610473565b50505050905090810190601f1680156104bb5780820380516001836020036101000a031916815260200191505b50838103825284818151815260200191508051906020019080838360005b838110156104f45780820151818401526020810190506104d9565b50505050905090810190601f1680156105215780820380516001836020036101000a031916815260200191505b50965050505050505060405180910390f35b61053b610c3f565b005b60005481565b565b6000600560003373ffffffffffffffffffffffffffffffffffffffff1673ffffffffffffffffffffffffffffffffffffffff168152602001908152602001600020541461059157600080fd5b604051806060016040528060015481526020018281526020013373ffffffffffffffffffffffffffffffffffffffff168152506003600060015481526020019081526020016000206000820151816000015560208201518160010190805190602001906105ff929190610d9d565b5060408201518160020160006101000a81548173ffffffffffffffffffffffffffffffffffffffff021916908373ffffffffffffffffffffffffffffffffffffffff16021790555090505080600460003373ffffffffffffffffffffffffffffffffffffffff1673ffffffffffffffffffffffffffffffffffffffff168152602001908152602001600020908051906020019061069d929190610e1d565b5060016000815480929190600101919050555050565b60405180606001604052808281526020018381526020013373ffffffffffffffffffffffffffffffffffffffff168152506003600083815260200190815260200160002060008201518160000155602082015181600101908051906020019061071d929190610d9d565b5060408201518160020160006101000a81548173ffffffffffffffffffffffffffffffffffffffff021916908373ffffffffffffffffffffffffffffffffffffffff16021790555090505081600460003373ffffffffffffffffffffffffffffffffffffffff1673ffffffffffffffffffffffffffffffffffffffff16815260200190815260200160002090805190602001906107bb929190610e1d565b505050565b6003602052806000526040600020600091509050806000015490806001018054600181600116156101000203166002900480601f0160208091040260200160405190810160405280929190818152602001828054600181600116156101000203166002900480156108725780601f1061084757610100808354040283529160200191610872565b820191906000526020600020905b81548152906001019060200180831161085557829003601f168201915b5050505050908060020160009054906101000a900473ffffffffffffffffffffffffffffffffffffffff16905083565b6060600460003373ffffffffffffffffffffffffffffffffffffffff1673ffffffffffffffffffffffffffffffffffffffff1681526020019081526020016000208054600181600116156101000203166002900480601f0160208091040260200160405190810160405280929190818152602001828054600181600116156101000203166002900480156109775780601f1061094c57610100808354040283529160200191610977565b820191906000526020600020905b81548152906001019060200180831161095a57829003601f168201915b50505050509050604051806080016040528060005481526020018381526020013373ffffffffffffffffffffffffffffffffffffffff1681526020018281525060026000805481526020019081526020016000206000820151816000015560208201518160010190805190602001906109f1929190610d9d565b5060408201518160020160006101000a81548173ffffffffffffffffffffffffffffffffffffffff021916908373ffffffffffffffffffffffffffffffffffffffff1602179055506060820151816003019080519060200190610a55929190610d9d565b50905050600560003373ffffffffffffffffffffffffffffffffffffffff1673ffffffffffffffffffffffffffffffffffffffff1681526020019081526020016000206000815480929190600101919050555060008081548092919060010191905055505050565b565b6002602052806000526040600020600091509050806000015490806001018054600181600116156101000203166002900480601f016020809104026020016040519081016040528092919081815260200182805460018160011615610100020316600290048015610b715780601f10610b4657610100808354040283529160200191610b71565b820191906000526020600020905b815481529060010190602001808311610b5457829003601f168201915b5050505050908060020160009054906101000a900473ffffffffffffffffffffffffffffffffffffffff1690806003018054600181600116156101000203166002900480601f016020809104026020016040519081016040528092919081815260200182805460018160011615610100020316600290048015610c355780601f10610c0a57610100808354040283529160200191610c35565b820191906000526020600020905b815481529060010190602001808311610c1857829003601f168201915b5050505050905084565b60606040518060400160405280600d81526020017f48656c6c6f2c20576f726c6421000000000000000000000000000000000000008152509050604051806080016040528060005481526020018281526020013373ffffffffffffffffffffffffffffffffffffffff1681526020016040518060400160405280600781526020017f67656e65736973000000000000000000000000000000000000000000000000008152508152506002600080548152602001908152602001600020600082015181600001556020820151816001019080519060200190610d21929190610d9d565b5060408201518160020160006101000a81548173ffffffffffffffffffffffffffffffffffffffff021916908373ffffffffffffffffffffffffffffffffffffffff1602179055506060820151816003019080519060200190610d85929190610d9d565b50905050600080815480929190600101919050555050565b828054600181600116156101000203166002900490600052602060002090601f016020900481019282601f10610dde57805160ff1916838001178555610e0c565b82800160010185558215610e0c579182015b82811115610e0b578251825591602001919060010190610df0565b5b509050610e199190610e9d565b5090565b828054600181600116156101000203166002900490600052602060002090601f016020900481019282601f10610e5e57805160ff1916838001178555610e8c565b82800160010185558215610e8c579182015b82811115610e8b578251825591602001919060010190610e70565b5b509050610e999190610e9d565b5090565b610ebf91905b80821115610ebb576000816000905550600101610ea3565b5090565b9056fea265627a7a723158202b20dce3b10ab33d37f17c1ea9981411fbe2354811b5d745aad24d9b04bf72ca64736f6c63430005100032",
  "source": "pragma solidity ^0.5.16;\n\ncontract synapse {\n\n  uint public thoughtCount = 0;\n  uint userCount = 0;\n\n  struct Thought {\n    uint id;\n    string thought;\n    address sender;\n    string handle;\n  }\n\n  struct User {\n    uint id;\n    string handle;\n    address user;\n  }\n\n\n  //Thought[] public thoughts;\n\n  mapping(uint => Thought) public thoughts;\n  mapping(uint => User) public users;\n  mapping (address => string) handles;\n  mapping (address => uint) ownerThoughts;\n\n\n  constructor () public {\n    firstThought();\n  }\n\n  function getUser () public {\n\n  }\n\n  function createThought(string memory _content) public {\n\n    string memory user = handles[msg.sender];\n\n    thoughts[thoughtCount] = Thought(thoughtCount, _content, msg.sender, user);\n    ownerThoughts[msg.sender]++;\n    thoughtCount++;\n  }\n\n\n  function firstThought() public {\n    string memory ft = \"Hello, World!\";\n    thoughts[thoughtCount] = Thought(thoughtCount, ft, msg.sender, \"genesis\");\n    thoughtCount ++;\n  }\n\n  function readThoughts() public {\n\n  }\n\n  function newUser(string memory _handle) public {\n    require(ownerThoughts[msg.sender] == 0);\n    users[userCount] = User(userCount, _handle, msg.sender);\n    handles[msg.sender] = _handle;\n    userCount++;\n  }\n\n  function updateUser(string memory _handle, uint _user) public {\n    users[_user] = User(_user, _handle, msg.sender);\n    handles[msg.sender] = _handle;\n  }\n\n\n\n}\n",
  "sourcePath": "/Users/reuben/Desktop/school/osu/capstone/synapse-project/contracts/synapse.sol",
  "compiler": {
    "name": "solc",
    "version": "0.5.16+commit.9c3226ce.Emscripten.clang"
  },
  "schemaVersion": "3.0.22",
  "updatedAt": "2020-02-24T21:44:18.843Z",
  "networkType": "ethereum",
  "devdoc": {
    "methods": {}
  },
  "userdoc": {
    "methods": {}
  }
}