{
  "contractName": "user",
  "abi": [
    {
      "constant": true,
      "inputs": [],
      "name": "userCount",
      "outputs": [
        {
          "internalType": "uint256",
          "name": "",
          "type": "uint256"
        }
      ],
      "payable": false,
      "stateMutability": "view",
      "type": "function"
    },
    {
      "constant": true,
      "inputs": [
        {
          "internalType": "uint256",
          "name": "",
          "type": "uint256"
        }
      ],
      "name": "users",
      "outputs": [
        {
          "internalType": "uint256",
          "name": "id",
          "type": "uint256"
        },
        {
          "internalType": "string",
          "name": "handle",
          "type": "string"
        },
        {
          "internalType": "address",
          "name": "user",
          "type": "address"
        }
      ],
      "payable": false,
      "stateMutability": "view",
      "type": "function"
    },
    {
      "constant": false,
      "inputs": [
        {
          "internalType": "string",
          "name": "_handle",
          "type": "string"
        }
      ],
      "name": "newUser",
      "outputs": [],
      "payable": false,
      "stateMutability": "nonpayable",
      "type": "function"
    },
    {
      "constant": false,
      "inputs": [
        {
          "internalType": "string",
          "name": "_handle",
          "type": "string"
        },
        {
          "internalType": "uint256",
          "name": "_user",
          "type": "uint256"
        }
      ],
      "name": "updateUser",
      "outputs": [],
      "payable": false,
      "stateMutability": "nonpayable",
      "type": "function"
    }
  ],
  "bytecode": "0x60806040526000805534801561001457600080fd5b5061078b806100246000396000f3fe608060405234801561001057600080fd5b506004361061004c5760003560e01c806307973ccf146100515780631eed11921461006f5780632bf9866f1461012a578063365b98b2146101ef575b600080fd5b6100596102d0565b6040518082815260200191505060405180910390f35b6101286004803603602081101561008557600080fd5b81019080803590602001906401000000008111156100a257600080fd5b8201836020820111156100b457600080fd5b803590602001918460018302840111640100000000831117156100d657600080fd5b91908080601f016020809104026020016040519081016040528093929190818152602001838380828437600081840152601f19601f8201169050808301925050505050505091929192905050506102d6565b005b6101ed6004803603604081101561014057600080fd5b810190808035906020019064010000000081111561015d57600080fd5b82018360208201111561016f57600080fd5b8035906020019184600183028401116401000000008311171561019157600080fd5b91908080601f016020809104026020016040519081016040528093929190818152602001838380828437600081840152601f19601f82011690508083019250505050505050919291929080359060200190929190505050610442565b005b61021b6004803603602081101561020557600080fd5b810190808035906020019092919050505061054f565b60405180848152602001806020018373ffffffffffffffffffffffffffffffffffffffff1673ffffffffffffffffffffffffffffffffffffffff168152602001828103825284818151815260200191508051906020019080838360005b83811015610293578082015181840152602081019050610278565b50505050905090810190601f1680156102c05780820380516001836020036101000a031916815260200191505b5094505050505060405180910390f35b60005481565b6000600360003373ffffffffffffffffffffffffffffffffffffffff1673ffffffffffffffffffffffffffffffffffffffff168152602001908152602001600020541461032257600080fd5b604051806060016040528060005481526020018281526020013373ffffffffffffffffffffffffffffffffffffffff16815250600160008054815260200190815260200160002060008201518160000155602082015181600101908051906020019061038f929190610631565b5060408201518160020160006101000a81548173ffffffffffffffffffffffffffffffffffffffff021916908373ffffffffffffffffffffffffffffffffffffffff16021790555090505080600260003373ffffffffffffffffffffffffffffffffffffffff1673ffffffffffffffffffffffffffffffffffffffff168152602001908152602001600020908051906020019061042d9291906106b1565b50600080815480929190600101919050555050565b60405180606001604052808281526020018381526020013373ffffffffffffffffffffffffffffffffffffffff16815250600160008381526020019081526020016000206000820151816000015560208201518160010190805190602001906104ac929190610631565b5060408201518160020160006101000a81548173ffffffffffffffffffffffffffffffffffffffff021916908373ffffffffffffffffffffffffffffffffffffffff16021790555090505081600260003373ffffffffffffffffffffffffffffffffffffffff1673ffffffffffffffffffffffffffffffffffffffff168152602001908152602001600020908051906020019061054a9291906106b1565b505050565b6001602052806000526040600020600091509050806000015490806001018054600181600116156101000203166002900480601f0160208091040260200160405190810160405280929190818152602001828054600181600116156101000203166002900480156106015780601f106105d657610100808354040283529160200191610601565b820191906000526020600020905b8154815290600101906020018083116105e457829003601f168201915b5050505050908060020160009054906101000a900473ffffffffffffffffffffffffffffffffffffffff16905083565b828054600181600116156101000203166002900490600052602060002090601f016020900481019282601f1061067257805160ff19168380011785556106a0565b828001600101855582156106a0579182015b8281111561069f578251825591602001919060010190610684565b5b5090506106ad9190610731565b5090565b828054600181600116156101000203166002900490600052602060002090601f016020900481019282601f106106f257805160ff1916838001178555610720565b82800160010185558215610720579182015b8281111561071f578251825591602001919060010190610704565b5b50905061072d9190610731565b5090565b61075391905b8082111561074f576000816000905550600101610737565b5090565b9056fea265627a7a7231582089b87a0ffde8777ce3fdfad7cf1fc8cbb5b4d6bef57697e54a3a6d056da8658764736f6c63430005100032",
  "source": "pragma solidity ^0.5.16;\n\ncontract user {\n\n  uint public userCount = 0;\n\n  struct User {\n    uint id;\n    string handle;\n    address user;\n  }\n\n  mapping(uint => User) public users;\n  mapping (address => string) handles;\n  mapping (address => uint) ownerThoughts;\n\n\n  function newUser(string memory _handle) public {\n    require(ownerThoughts[msg.sender] == 0);\n    users[userCount] = User(userCount, _handle, msg.sender);\n    handles[msg.sender] = _handle;\n    userCount++;\n  }\n\n  function updateUser(string memory _handle, uint _user) public {\n    users[_user] = User(_user, _handle, msg.sender);\n    handles[msg.sender] = _handle;\n  }\n\n}\n",
  "sourcePath": "/Users/reuben/Desktop/school/osu/capstone/synapse-project/contracts/user.sol",
  "compiler": {
    "name": "solc",
    "version": "0.5.16+commit.9c3226ce.Emscripten.clang"
  },
  "schemaVersion": "3.0.22",
  "updatedAt": "2020-02-13T04:24:12.460Z",
  "devdoc": {
    "methods": {}
  },
  "userdoc": {
    "methods": {}
  }
}